:100000000C9463000C948B000C948B000C94AC0645
:100010000C94AC060C94AC060C948B000C948B00E6
:100020000C948B000C948B000C948B000C948B0024
:100030000C948B000C948B000C948B000C948B0014
:100040000C9462060C948B000C9430060C940A06F7
:100050000C948B000C948B000C948B000C948B00F4
:100060000C948B000C948B000000000024002700EF
:100070002A0000000008000201000003040700003D
:1000800000000000000000000000230026002900FE
:1000900000000000250028002B00040404040404D0
:1000A0000404020202020202030303030303010227
:1000B00004081020408001020408102001020408F6
:1000C00010202407BC0B11241FBECFEFD8E0DEBFE9
:1000D000CDBF13E0A0E0B1E0EEE9F1E202C005908F
:1000E0000D92A433B107D9F724E0A4E3B3E001C033
:1000F0001D92A935B207E1F710E0C2E6D0E004C0D6
:100100002197FE010E94CA0EC136D107C9F70E948D
:10011000FB070C94C2100C940000AF92BF92CF92D8
:10012000DF92EF92FF920F931F93CF93DF936C01B7
:100130007B018B01040F151FEB015E01AE18BF0898
:10014000C017D10759F06991D601ED91FC9101904A
:10015000F081E02DC6010995892B79F7C501DF9162
:10016000CF911F910F91FF90EF90DF90CF90BF90B4
:10017000AF900895FC01538D448D252F30E0842FDE
:1001800090E0821B930B541710F0CF9608950197BF
:100190000895FC01918D828D981761F0A28DAE0FAC
:1001A000BF2FB11D5D968C91928D9F5F9F73928F33
:1001B00090E008958FEF9FEF0895FC01918D828D5F
:1001C000981731F0828DE80FF11D858D90E008952C
:1001D0008FEF9FEF0895FC01918D228D892F90E084
:1001E000805C9F4F821B91098F739927089581E846
:1001F00093E00E94EB0021E0892B09F420E0822F9C
:10020000089580E090E0892B29F00E94F700811189
:100210000C9400000895FC01A48DA80FB92FB11D06
:10022000A35ABF4F2C91848D90E001968F7399272C
:10023000848FA689B7892C93A089B1898C9183700A
:1002400080648C93938D848D981306C00288F38903
:10025000E02D80818F7D80830895EF92FF920F9330
:100260001F93CF93DF93EC0181E0888F9B8D8C8D62
:1002700098131AC0E889F989808185FF15C09FB756
:10028000F894EE89FF896083E889F9898081837019
:10029000806480839FBF81E090E0DF91CF911F91C8
:1002A0000F91FF90EF900895F62E0B8D10E00F5FE9
:1002B0001F4F0F731127E02E8C8D8E110CC00FB6BF
:1002C00007FCFACFE889F989808185FFF5CFCE0157
:1002D0000E940B01F1CFEB8DEC0FFD2FF11DE35AC6
:1002E000FF4FF0829FB7F8940B8FEA89FB898081DA
:1002F0008062CFCFCF93DF93EC01888D8823B9F054
:10030000AA89BB89E889F9898C9185FD03C0808120
:1003100086FD0DC00FB607FCF7CF8C9185FFF2CF9D
:10032000808185FFEDCFCE010E940B01E9CFDF91E7
:10033000CF91089590E0FC01EE58FF4F2491FC010D
:10034000E255FF4F3491FC01E656FF4FE491EE2356
:10035000C9F0222339F0233001F1A8F4213019F13A
:10036000223029F1F0E0EE0FFF1FE057FF4FA5917B
:10037000B4918FB7F894EC91611126C030953E236B
:100380003C938FBF08952730A9F02830C9F024305E
:1003900049F7809180008F7D03C0809180008F7726
:1003A00080938000DFCF84B58F7784BDDBCF84B5A9
:1003B0008F7DFBCF8091B0008F778093B000D2CF3C
:1003C0008091B0008F7DF9CF3E2BDACFCF93DF93B2
:1003D00090E0FC01E255FF4F249186569F4FFC01AF
:1003E00084918823D1F090E0880F991FFC01E8598F
:1003F000FF4FA591B491FC01E057FF4FC591D491F7
:1004000061110EC09FB7F8948C91E22FE0958E2376
:100410008C932881E223E8839FBFDF91CF910895D9
:100420008FB7F894EC91E22BEC938FBFF6CF3FB7E8
:10043000F8948091790390917A03A0917B03B09115
:100440007C0326B5A89B05C02F3F19F00196A11D7E
:10045000B11D3FBFBA2FA92F982F8827BC01CD010E
:10046000620F711D811D911D42E0660F771F881F6D
:10047000991F4A95D1F708958F929F92AF92BF929C
:10048000CF92DF92EF92FF924B015C010E94170224
:100490006B017C010E9417026C197D098E099F096E
:1004A000683E734081059105A8F321E0821A910806
:1004B000A108B10888EEC80E83E0D81EE11CF11C2B
:1004C00081149104A104B10429F7FF90EF90DF900B
:1004D000CF90BF90AF909F908F90089508952091F6
:1004E0007F03309180032817390771F490917D03C1
:1004F00080917E03981741F0E0917D03F0E0EC5C81
:10050000FC4F808190E008958FEF9FEF089508954C
:10051000EF92FF920F931F93CF93DF93DC015C96D2
:10052000ED90FC905D97E114F10479F481E090E0A6
:1005300013969C938E93129790E080E0DF91CF9179
:100540001F910F91FF90EF9008955196ED91FC91BE
:10055000529750968C915097982F90950FB75E9622
:100560002C915E97122F127021FD6095F8942081D6
:10057000112319F1282B2083E7012197F1F728E0B7
:10058000462F50E0308160FF1AC0382B3083E701DE
:100590002197F1F7BA0175956795215089F71123D5
:1005A00081F08081892380830FBF5C968D919C911F
:1005B0000197F1F781E090E0C1CF2923DCCF392307
:1005C000E5CF9081892BEFCF20917F03309180037D
:1005D0002817390771F480917E0320917D0390E004
:1005E000805C9F4F821B910960E470E00E949B0E2B
:1005F000089590E080E0089520917F03309180037A
:1006000028173907B9F490917D0380917E039817DC
:1006100089F0E0917D03F0E0EC5CFC4F808120915B
:100620007D0330E02F5F3F4F2F73332720937D03EF
:1006300090E008958FEF9FEF089590E080E0089597
:1006400086E394E00E94E402892B51F086E394E073
:100650000E94FC02682F81E893E00E942D01F0CFF8
:1006600068EE73E080E090E00C943C02CF93DF935F
:10067000EC0160E08E810E949A0161E08E810E940F
:100680009A0160E08E810E949A018BE891E00197C7
:10069000F1F7DF91CF910895CF92DF92EF92FF9221
:1006A0000F931F93CF93DF936C017C0187E0E80EDB
:1006B000F11CD0E0C0E0062F10E0B8010C2E02C003
:1006C000759567950A94E2F76170F70181917F0152
:1006D0000E949A012196C430D10579F7C601DF91B5
:1006E000CF911F910F91FF90EF90DF90CF900C94DE
:1006F0003603CF92DF92EF92FF920F931F93CF9327
:10070000DF93EC01F62E642F8C810E949A018D817B
:100710008F3F19F060E00E949A010F2D10E08F8545
:1007200084FF25C06E0187E0C80ED11CF12CE12C9E
:10073000B8010E2C02C0759567950A94E2F76170B6
:10074000F60181916F010E949A01FFEFEF1AFF0AF3
:1007500088E0E816F10461F7CE01DF91CF911F9197
:100760000F91FF90EF90DF90CF900C943603B8017B
:1007700084E0759567958A95E1F7CE010E944C0358
:100780006F2DCE01DF91CF911F910F91FF90EF90D0
:10079000DF90CF900C944C0340E0682F8EE194E002
:1007A0000C94790381E00E94CC038BE39FE10197D5
:1007B000F1F70895CF93DF93613029F090912D04E4
:1007C000986090932D04609331041092320490E469
:1007D0009093330480933404805C8093350461E00B
:1007E000809122040E94E601809123048F3F19F03A
:1007F00061E00E94E60161E0809124040E94E6012C
:10080000CEE1D4E09E012E51344080912D0484FD30
:100810000BC084E090E021962817390744F461E08A
:100820008E810E94E601EECF88E090E0F4CF8BE36A
:100830009DE00197F1F760E0809122040E949A0107
:1008400060E0809124040E949A01809123048F3FEC
:1008500019F060E00E949A0180912D0484FD34C05B
:1008600063E08EE194E00E944C03CBE4D6E4CE0139
:100870000197F1F763E08EE194E00E944C03219729
:10088000F1F763E08EE194E00E944C0383E592E08F
:100890000197F1F762E08EE194E00E944C038091B1
:1008A0002D0480620E94CC0384E080932E048CE0AF
:1008B0000E94CC030E94D20382E080932F0486E042
:1008C000DF91CF910C94CC0380620E94CC038BE427
:1008D00096E40197F1F780912D0480620E94CC0389
:1008E00083E592E00197F1F780912D0480620E94E8
:1008F000CC03D5CF90913104891710F08FEF890F79
:10090000E82FF0E0E25EFB4F848980680C94CC0312
:1009100041E00E94790381E090E00895FB0101909D
:100920000020E9F73197AF01461B570BDC01ED9131
:10093000FC910280F381E02D09948F929F92AF92F7
:10094000BF92EF92FF920F931F93CF93DF93CDB798
:10095000DEB7A1970FB6F894DEBF0FBECDBF7C0106
:10096000FA01CB0119A2223008F42AE08E010F5DB2
:100970001F4F822E912CB12CA12CBF01A5019401F7
:100980000E94520DF901CA016A300CF5605DD80170
:100990006E938D01232B242B252B79F790E080E09B
:1009A000109721F0BD01C7010E948E04A1960FB6D9
:1009B000F894DEBF0FBECDBFDF91CF911F910F9195
:1009C000FF90EF90BF90AF909F908F900895695CDB
:1009D000DECF2F923F924F925F926F927F928F92D3
:1009E0009F92AF92BF92CF92DF92EF92FF921F93AE
:1009F000CF93DF93EC016A017B01722EAB0196016C
:100A0000CB01B6010E94960E66E371E0811126C00B
:100A100046015701E894B7F82FEF3FEF4FE75FE744
:100A2000C501B4010E94960E81110CC02FEF3FEF5B
:100A30004FE75FE7C501B4010E94D80B6AE371E09C
:100A4000181664F02FEF3FEF4FE75FE4C701B601E0
:100A50000E94910E1816B4F46EE371E0CE01DF919E
:100A6000CF911F91FF90EF90DF90CF90BF90AF900C
:100A70009F908F907F906F905F904F903F902F90BE
:100A80000C948E042FEF3FEF4FE75FECC701B601E8
:100A90000E94D80B87FDE0CF20E030E0A901C7011C
:100AA000B6010E94D80B312C212C87FF0DC0E881A4
:100AB000F9810190F081E02D6DE2CE0109951C01D4
:100AC000F7FAF094F7F8F09410E060E070E080E05E
:100AD0009FE3711641F020E030E040E251E40E94D3
:100AE000F00D1F5FF6CFA70196010E94840D2B0128
:100AF0003C010E94620E4B015C012AE0BC01A40192
:100B0000CE010E949D047C01E20CF31C1123E1F153
:100B1000C501B4010E94DD0B9B01AC01C301B20110
:100B20000E94830D4B015C01E881F9810190F08105
:100B3000E02D6EE2CE010995E80EF91E115020F16C
:100B400020E030E040E251E4C501B4010E943E0CD7
:100B50002B013C010E94620E4B01B12CA12C2AE01A
:100B6000B501A401CE010E949D04E80EF91EC50145
:100B7000B4010E94DD0B9B01AC01C301B2010E94D4
:100B8000830D4B015C01DACFC701DF91CF911F913B
:100B9000FF90EF90DF90CF90BF90AF909F908F909D
:100BA0007F906F905F904F903F902F90089562E4F8
:100BB00071E00C948E040F931F93CF93DF93EC019D
:100BC0000E948E048C01CE010E94D705800F911FD8
:100BD000DF91CF911F910F9108950F931F93CF93A2
:100BE000DF93EC01FB014481558160817181E881D3
:100BF000F9810280F381E02D09958C01CE010E94DC
:100C0000D705800F911FDF91CF911F910F9108950C
:100C10000C948E041F920F920FB60F9211242F93F3
:100C20003F934F935F936F937F938F939F93AF9374
:100C3000BF93EF93FF9381E893E00E940B01FF9134
:100C4000EF91BF91AF919F918F917F916F915F9144
:100C50004F913F912F910F900FBE0F901F901895BD
:100C60001F920F920FB60F9211242F938F939F9381
:100C7000EF93FF93E0919103F09192038081E091D3
:100C80009703F091980382FD1BC0908180919A0395
:100C90008F5F8F7320919B03821741F0E0919A033D
:100CA000F0E0EF57FC4F958F80939A03FF91EF91FF
:100CB0009F918F912F910F900FBE0F901F901895BD
:100CC0008081F4CF1F920F920FB60F9211242F93B1
:100CD0003F938F939F93AF93BF93809175039091B0
:100CE0007603A0917703B09178033091740323E0E9
:100CF000230F2D3758F50196A11DB11D20937403C4
:100D00008093750390937603A0937703B093780351
:100D10008091790390917A03A0917B03B0917C0339
:100D20000196A11DB11D8093790390937A03A0933E
:100D30007B03B0937C03BF91AF919F918F913F91C3
:100D40002F910F900FBE0F901F90189526E8230F3C
:100D50000296A11DB11DD2CF1F920F920FB60F9216
:100D600011242F933F934F935F936F937F938F93B0
:100D70009F93AF93BF93EF93FF93E0917F03F09125
:100D80008003309749F0A685B7858585968D91FFBC
:100D900014C09C918923A1F4FF91EF91BF91AF9171
:100DA0009F918F917F916F915F914F913F912F9183
:100DB0000F900FBE0F901F9018959C91892361F79B
:100DC000A389B4899C918589809589238C93868990
:100DD00097890197F1F7608D718DA685B785558547
:100DE00038E020E0CB010197F1F7822F90E0959554
:100DF0008795282F4C91452309F02068315091F7B1
:100E0000868D81FD209580917E0390E001968F7301
:100E1000992730917D03381799F0A0917E03B0E0B7
:100E2000AC5CBC4F2C9380937E03828D938D019795
:100E3000F1F7A389B4898C919589892B8C93ACCFD8
:100E4000868D8160868FF1CF109284031092830388
:100E500088EE93E0A0E0B0E0809385039093860352
:100E6000A0938703B09388032AE031E03093820394
:100E70002093810325EC30E030938E0320938D0383
:100E800024EC30E03093900320938F0320EC30E08B
:100E9000309392032093910321EC30E0309394033C
:100EA0002093930322EC30E0309396032093950334
:100EB00026EC30E0309398032093970310929A0326
:100EC00010929B0310929C0310929D031092390480
:100ED0001092380480933A0490933B04A0933C040E
:100EE000B0933D0488E291E09093370480933604F8
:100EF00010924D0410924C0410924F0410924E0424
:100F00001092510410925004109253041092520403
:100F1000609154046E7F6D7F609354046695617098
:100F200081E0682787E00E949A0161E087E00E94E3
:100F3000E601E5EBF0E0E491E0934604E1EAF0E05D
:100F4000E491F0E0EE0FFF1FE057FF4F8591949181
:100F5000909348048093470460E088E00E94E60193
:100F60008091540481FD04C061E088E00E949A01F0
:100F700088E080934204E6EBF0E0E491E0934304E0
:100F8000E2EAF0E0E491F0E0EE0FFF1FEA57FF4FD6
:100F90008591949190934504809344041092210488
:100FA000109220048CE191E090931F0480931E0422
:100FB0008CE0809322048FEF809323048BE0809356
:100FC000240485E08093250484E08093260483E054
:100FD0008093270482E080932804109229041092C1
:100FE0002A0410922B0410922C0410922D0461E01C
:100FF00080E10C94DA03CF93DF93CDB7DEB72A9765
:101000000FB6F894DEBF0FBECDBF789484B5826072
:1010100084BD84B5816084BD85B5826085BD85B59C
:10102000816085BD80916E00816080936E0010921A
:101030008100809181008260809381008091810095
:101040008160809381008091800081608093800026
:101050008091B10084608093B1008091B000816084
:101060008093B00080917A00846080937A008091B0
:101070007A00826080937A0080917A008160809308
:101080007A0080917A00806880937A001092C10083
:10109000109251041092500410924F0410924E047A
:1010A00010924D0410924C048DE991E090935304FA
:1010B0008093520490914204963108F047C02DEB82
:1010C00030E030934D0420934C042BE931E0309311
:1010D0004F0420934E042CE231E0309351042093CE
:1010E00050042091680084E0983048F031E09E3050
:1010F00008F430E081E001C0880F3A95EAF7822BCE
:10110000809368002DE630E0983050F02BE630E018
:101110009E3030F02CE630E0963110F030E020E0E8
:1011200030934A0420934904292F30E0983008F086
:1011300089C281E001C0880F9A95EAF780934B0439
:1011400080915204909153040197F1F780915004DB
:1011500090915104892B49F1E0917F03F091800334
:1011600084E0E633F80709F1309739F0A389B489B0
:101170009C918589809589238C93809154048E7FDE
:101180008093540410927E0310927D0386E394E0D2
:101190009093800380937F03E0914904F0914A0487
:1011A000808190914B04892B8083E0919103F09191
:1011B000920382E08083E0918D03F0918E03108290
:1011C000E0918F03F09190038FEC8083109299034C
:1011D000E0919503F091960386E08083E09193037C
:1011E000F0919403808180618083E0919303F0917A
:1011F0009403808188608083E0919303F09194034D
:10120000808180688083E0919303F09194038081D2
:101210008F7D808365E471E081E893E00E94DB05C7
:1012200064E084E10E94DA0365E571E08EE194E018
:101230000E94080681E00E947A0465E671E08EE172
:1012400094E00E94080660E777E180E090E00E9469
:101250003C020E94D20388248A9483E0982EA12C19
:10126000B12C90E0292E90E0392E0EE110E0E0E460
:10127000E0937C0080917A00806480937A00809172
:101280007A0086FDFCCFE090780080917900F82EFE
:1012900029EF30E0D7010E94AF0EA50194010E9412
:1012A000FC0CCA01B9016F5F7F4F8F4F9F4F0E94A7
:1012B000DF0B2B013C012DE130E0D7010E94AF0E86
:1012C000A50194010E94FC0CCA01B9016F5F7F4F18
:1012D0008F4F9F4F0E94DF0B6F83788789879A8794
:1012E00027EC30E0D7010E94AF0EA50194010E94C7
:1012F000FC0CCA01B9016F5F7F4F8F4F9F4F0E9457
:10130000DF0B6B017C0164E670E080E090E00E94FE
:101310003C0280E00E947A0462E771E08EE194E092
:101320000E94080664E670E080E090E00E943C02C3
:101330000E94D20380E00E947A0466E871E08EE1A8
:1013400094E00E94080681E00E947A046CE971E052
:101350008EE194E00E94080622E0B301A2018EE132
:1013600094E00E94E9046AEB71E08EE194E00E944F
:10137000DB058EE194E00E94D70582E00E947A04AA
:1013800060EA71E08EE194E00E94080622E04F815D
:10139000588569857A858EE194E00E94E9046AEBBC
:1013A00071E08EE194E00E94DB058EE194E00E9402
:1013B000D70583E00E947A0464EA71E08EE194E04C
:1013C0000E94080622E0B701A6018EE194E00E9487
:1013D000E90468EA71E08EE194E00E94DB0564E6CE
:1013E00070E080E090E00E943C026DEA71E081E8EC
:1013F00093E00E94080622E0B301A20181E893E095
:101400000E94E90469EB71E081E893E00E94DB054A
:101410006EEB71E081E893E00E94080622E04F81C4
:10142000588569857A8581E893E00E94E90469EB33
:1014300071E081E893E00E94DB056CEC71E081E8EB
:1014400093E00E94080622E0B701A60181E893E03C
:101450000E94E90469EB71E081E893E00E94DB05FA
:1014600069ED71E081E893E00E94DB0564E670E0DD
:1014700080E090E00E943C0286E394E00E94E40257
:10148000892B49F086E394E00E94FC02682F81E8F2
:1014900093E00E942D016AEE71E081E893E00E94E2
:1014A000DB0561E072E086E394E00E94DB0564E620
:1014B00070E080E090E00E943C020E94200364E61D
:1014C00070E080E090E00E943C0264E072E086E31D
:1014D00094E00E94DB0564E670E080E090E00E940A
:1014E0003C026DE072E086E394E00E94DB0564E676
:1014F00070E080E090E00E943C0266E172E086E3EA
:1015000094E00E94DB0564E670E080E090E00E94D9
:101510003C0260E272E086E394E00E94DB0564E650
:1015200070E080E090E00E943C026BE272E086E3B3
:1015300094E00E94DB0564E670E080E090E00E94A9
:101540003C0268E372E086E394E00E94DB0564E617
:1015500070E080E090E00E943C020E94200364E47E
:1015600072E086E394E00E94DB0564E670E080E0D0
:1015700090E00E943C020E9420036DE572E086E349
:1015800094E00E94DB0564E670E080E090E00E9459
:101590003C020E94200366E672E086E394E00E942B
:1015A000DB0564E670E080E090E00E943C020E946F
:1015B00020036FE672E086E394E00E94DB0564E6B8
:1015C00070E080E090E00E943C020E9420036CE703
:1015D00072E086E394E00E94DB0564E670E080E060
:1015E00090E00E943C020E9420036CEB72E086E3D4
:1015F00094E00E94DB0564E670E080E090E00E94E9
:101600003C020E9420031A8219821C821B821E82C5
:101610001D826FE170E090E080E00E94F50F00977E
:10162000F1F09A8389831C830B832D813E81232BC8
:1016300011F4FC0110821E830D8367EC72E00E949E
:10164000BB1019C09E3040F42850310981E001C020
:10165000880F2A95EAF772CD2E503109F7CF89818C
:101660009A81009711F00E946C0F1A8219821E82D3
:101670001D821C821B82BE016F5F7F4F81E893E059
:101680000E94ED05BE016F5F7F4F86E394E00E94EC
:10169000ED0564E670E080E090E00E943C020E946C
:1016A00020036AE186E394E00E94880286E394E0E6
:1016B0000E94D70568EC70E080E090E00E943C0258
:1016C00086E394E00E94D7050E94200360E272E066
:1016D00086E394E00E94DB0564E670E080E090E041
:1016E0000E943C020E94200366EE72E081E893E0D3
:1016F0000E94DB0564E670E080E090E00E943C021E
:1017000064E471E081E893E00E94DB0560E073E04F
:1017100081E893E00E94DB0568EE73E080E090E0F2
:101720000E943C0264E471E081E893E00E94DB05E2
:1017300069E173E081E893E00E94DB0564E471E015
:1017400081E893E00E94DB0569E173E081E893E0C2
:101750000E94DB0589819A81009711F00E946C0F2D
:101760002114310409F483CD0E94F700882309F481
:101770007ECD0E9400007BCD88E291E090933704FB
:101780008093360480917F03909180038653944028
:1017900071F4E0914904F0914A04908180914B04E6
:1017A0008095892380831092800310927F0308958F
:1017B0000E941A0C08F481E00895E89409C097FB90
:1017C0003EF490958095709561957F4F8F4F9F4F18
:1017D0009923A9F0F92F96E9BB279395F69587955C
:1017E00077956795B795F111F8CFFAF4BB0F11F41F
:1017F00060FF1BC06F5F7F4F8F4F9F4F16C08823C6
:1018000011F096E911C0772321F09EE8872F762FFB
:1018100005C0662371F096E8862F70E060E02AF03C
:101820009A95660F771F881FDAF7880F9695879528
:1018300097F90895990F0008550FAA0BE0E8FEEFFD
:1018400016161706E807F907C0F012161306E40784
:10185000F50798F0621B730B840B950B39F40A267D
:1018600061F0232B242B252B21F408950A2609F45B
:10187000A140A6958FEF811D811D08950E94510CF6
:101880000C94C20C0E94B40C38F00E94BB0C20F0E7
:10189000952311F00C94AB0C0C94B10C11240C9406
:1018A000F60C0E94D30C70F3959FC1F3950F50E096
:1018B000551F629FF001729FBB27F00DB11D639F02
:1018C000AA27F00DB11DAA1F649F6627B00DA11DA8
:1018D000661F829F2227B00DA11D621F739FB00D4E
:1018E000A11D621F839FA00D611D221F749F3327BE
:1018F000A00D611D231F849F600D211D822F762F57
:101900006A2F11249F5750409AF0F1F088234AF033
:10191000EE0FFF1FBB1F661F771F881F915050409F
:10192000A9F79E3F510580F00C94AB0C0C94F60C7B
:101930005F3FE4F3983ED4F3869577956795B79526
:10194000F795E7959F5FC1F7FE2B880F911D969540
:10195000879597F9089597F99F6780E870E060E0B0
:1019600008959FEF80EC089500240A941616170638
:1019700018060906089500240A9412161306140680
:1019800005060895092E0394000C11F4882352F0E3
:10199000BB0F40F4BF2B11F460FF04C06F5F7F4F9B
:1019A0008F4F9F4F089557FD9058440F551F59F082
:1019B0005F3F71F04795880F97FB991F61F09F3F3C
:1019C00079F087950895121613061406551FF2CF65
:1019D0004695F1DF08C0161617061806991FF1CFB5
:1019E00086957105610508940895E894BB276627DC
:1019F0007727CB0197F90895052E97FB1EF40094E5
:101A00000E94130D57FD07D00E94520D07FC03D012
:101A10004EF40C94130D50954095309521953F4F01
:101A20004F4F5F4F089590958095709561957F4FCA
:101A30008F4F9F4F08952F923F924F925F926F92D8
:101A40007F928F929F92AF92BF92CF92DF92EF924E
:101A5000FF920F931F93CF93DF93CDB7DEB7CA1BCF
:101A6000DB0B0FB6F894DEBF0FBECDBF09942A88FA
:101A7000398848885F846E847D848C849B84AA84A2
:101A8000B984C884DF80EE80FD800C811B81AA812F
:101A9000B981CE0FD11D0FB6F894DEBF0FBECDBFFA
:101AA000ED010895A1E21A2EAA1BBB1BFD010DC07A
:101AB000AA1FBB1FEE1FFF1FA217B307E407F507FE
:101AC00020F0A21BB30BE40BF50B661F771F881FDA
:101AD000991F1A9469F760957095809590959B0170
:101AE000AC01BD01CF010895A29FB001B39FC00119
:101AF000A39F700D811D1124911DB29F700D811D3A
:101B00001124911D08955058BB27AA270E949B0DB0
:101B10000C94C20C0E94B40C38F00E94BB0C20F054
:101B200039F49F3F19F426F40C94B10C0EF4E095AF
:101B3000E7FB0C94AB0CE92F0E94D30C58F3BA17B7
:101B4000620773078407950720F079F4A6F50C94D3
:101B5000F50C0EF4E0950B2EBA2FA02D0B01B90158
:101B600090010C01CA01A0011124FF27591B99F013
:101B7000593F50F4503E68F11A16F040A22F232F1F
:101B8000342F4427585FF3CF469537952795A7956F
:101B9000F0405395C9F77EF41F16BA0B620B730B16
:101BA000840BBAF09150A1F0FF0FBB1F661F771F87
:101BB000881FC2F70EC0BA0F621F731F841F48F43C
:101BC000879577956795B795F7959E3F08F0B0CFC5
:101BD0009395880F08F09927EE0F979587950895AC
:101BE0000E94040E0C94C20C0E94BB0C58F00E9480
:101BF000B40C40F029F45F3F29F00C94AB0C511168
:101C00000C94F60C0C94B10C0E94D30C68F399233D
:101C1000B1F3552391F3951B550BBB27AA276217E8
:101C20007307840738F09F5F5F4F220F331F441FF5
:101C3000AA1FA9F335D00E2E3AF0E0E832D0915029
:101C40005040E695001CCAF72BD0FE2F29D0660F16
:101C5000771F881FBB1F261737074807AB07B0E859
:101C600009F0BB0B802DBF01FF2793585F4F3AF05F
:101C70009E3F510578F00C94AB0C0C94F60C5F3F32
:101C8000E4F3983ED4F3869577956795B795F795E5
:101C90009F5FC9F7880F911D9695879597F90895CD
:101CA000E1E0660F771F881FBB1F62177307840769
:101CB000BA0720F0621B730B840BBA0BEE1F88F778
:101CC000E09508950E94DB0C88F09F5798F0B92F9B
:101CD0009927B751B0F0E1F0660F771F881F991F61
:101CE0001AF0BA95C9F714C0B13091F00E94F50C02
:101CF000B1E008950C94F50C672F782F8827B85F12
:101D000039F0B93FCCF3869577956795B395D9F7B8
:101D10003EF490958095709561957F4F8F4F9F4FC2
:101D200008950E941A0C08F48FEF08950E941A0C6F
:101D3000880B990B089597FB072E16F4009407D093
:101D400077FD09D00E94B60E07FC05D03EF49095B1
:101D500081959F4F0895709561957F4F08950E94DA
:101D6000740DB7FF0895821B930B0895AA1BBB1B2C
:101D700051E107C0AA1FBB1FA617B70710F0A61B8B
:101D8000B70B881F991F5A95A9F780959095BC01AC
:101D9000CD010895EE0FFF1F0590F491E02D0994F9
:101DA0000F931F93CF93DF938230910510F482E05D
:101DB00090E0E0915704F091580430E020E0B0E06A
:101DC000A0E0309799F42115310509F44AC0281B89
:101DD000390B24303105D8F58A819B816115710555
:101DE00089F1FB0193838283FE0111C040815181FF
:101DF0000281138148175907E0F04817590799F4F1
:101E0000109761F012960C93129713961C933296CA
:101E1000CF01DF91CF911F910F9108950093570447
:101E200010935804F4CF2115310551F04217530790
:101E300038F0A901DB019A01BD01DF01F801C1CF32
:101E4000EF01F9CF9093580480935704CDCFFE0152
:101E5000E20FF31F81939193225031093983288334
:101E6000D7CF2091550430915604232B41F4209173
:101E700002013091030130935604209355042091C0
:101E80000001309101012115310541F42DB73EB714
:101E90004091040150910501241B350BE09155043C
:101EA000F0915604E217F307A0F42E1B3F0B2817FE
:101EB000390778F0AC014E5F5F4F2417350748F0C3
:101EC0004E0F5F1F50935604409355048193919396
:101ED0009FCFF0E0E0E09CCFCF93DF930097E9F055
:101EE000FC01329713821282A0915704B0915804DA
:101EF000ED0130E020E01097A1F420813181820FC4
:101F0000931F20915504309156042817390709F082
:101F100061C0F0935604E0935504DF91CF9108958A
:101F2000EA01CE17DF07E8F54A815B819E01411582
:101F30005105B1F7E901FB83EA8349915991C40F37
:101F4000D51FEC17FD0761F4808191810296840F03
:101F5000951FE90199838883828193819B838A837A
:101F6000F0E0E0E012968D919C9113970097B9F5FF
:101F70002D913C911197CD010296820F931F2091D4
:101F80005504309156042817390739F6309751F522
:101F90001092580410925704B0935604A09355041D
:101FA000BCCFD383C28340815181840F951FC81752
:101FB000D90761F44E5F5F4F88819981480F591F9F
:101FC000518340838A819B819383828321153105CC
:101FD00009F0B0CFF0935804E09357049ECFFD0171
:101FE000DC01C0CF13821282D7CFB0E0A0E0EBEFCC
:101FF000FFE00C941D0D8C01009751F4CB010E9461
:10200000D00E8C01C801CDB7DEB7E0E10C94390DDC
:10201000FC01E60FF71F9C0122503109E217F3077C
:1020200008F49DC0D901CD91DC911197C617D7074F
:1020300098F0C530D10530F3CE0104978617970785
:1020400008F3C61BD70B2297C193D1936D937C9352
:10205000CF010E946C0FD6CF5B01AC1ABD0A4C01B8
:102060008C0E9D1EA0915704B0915804512C412C08
:10207000F12CE12C109731F5809155049091560484
:102080008815990509F05CC04616570608F058C037
:102090008091000190910101009741F48DB79EB7A6
:1020A0004091040150910501841B950BE817F90735
:1020B00008F055C0F0935604E0935504F90171837C
:1020C0006083A0CF8D919C91119712966C9012977E
:1020D00013967C901397A815B90559F56C0142E049
:1020E000C40ED11CCA14DB0420F1AC014A195B09EF
:1020F000DA011296159780F06282738251834083D1
:10210000D9016D937C93E114F10471F0D70113961A
:10211000FC93EE93129776CF22968C0F9D1FF901B8
:1021200091838083F301EFCFF0935804E093570439
:1021300069CF4816590608F42C017D01D3019ACFC6
:10214000CB010E94D00E7C01009749F0AE01B8018E
:102150000E94B210C8010E946C0F870153CF10E09B
:1021600000E050CFFB01DC0102C001900D92415014
:102170005040D8F70895FB01DC0101900D9200203A
:10218000E1F7089510E0C2E6D0E004C0FE010E942D
:0E219000CA0E2196C336D107C9F7F894FFCFC7
:10219E00000059048000000000002D018D00BA00DF
:1021AE007A01EB00C900DD000000000088048D00FC
:1021BE001D036E020000000088028D001D038702C1
:1021CE00E402FC026F026E616E00696E66006F764D
:1021DE0066000D0A00736574757020636F6D706C08
:1021EE006574652100496E697469616C697A696EFE
:1021FE00672E2E2E004E504B20434845434B494EE2
:10220E0047002D2D2D2D4E504B2053454E53494EEC
:10221E00472D2D2D2D002D2D2D2D4E504B204E5555
:10222E00545249454E54532D2D2D2D004E3A20001B
:10223E00503A20004B3A200070706D20004E4954E9
:10224E00524F47454E203D20002070706D00504883
:10225E004F5350484F525553203D2000504F54413C
:10226E00535349554D203D20002D2D2D2D2D2D2D17
:10227E002D2D2D2D2D2D2D2D2D002E2E2E48545441
:10228E005020504F5354204D4554484F442E2E2E1F
:10229E000041540041542B4350494E3F0041542BB2
:1022AE00435245473F0041542B43474154543F004E
:1022BE0041542B434950534855540041542B4349E4
:1022CE00505354415455530041542B4349504D558E
:1022DE00583D300041542B435354543D2261697292
:1022EE0074656C677072732E636F6D220041542B90
:1022FE0043494943520041542B43494653520041EE
:10230E00542B434950535052543D300041542B43AB
:10231E00495053544152543D22544350222C226C66
:10232E006F63616C686F73742F736F696C2D6E7051
:10233E006B2D746573742F6E75747269656E742E61
:10234E00706870222C2233333036220041542B43D6
:10235E00495053454E440047455420736F696C2DC8
:10236E006E706B2D746573742F6E75747269656EF5
:10237E00742E7068700044617461205375626D69CB
:10238E0074746564205375636365737366756C004E
:10239E006E65787420736F696C206E7574726965E2
:1023AE006E74732074657374002E2E2E2E2E2E2EA8
:1023BE002E2E2E2E2E2E2E2E2E2E2E2E2E2E2E2E2F
:0423CE002E2E2E0081
:00000001FF
